{
  "contractName": "NftPrintLicense",
  "abi": [
    {
      "anonymous": false,
      "inputs": [
        {
          "indexed": false,
          "internalType": "address",
          "name": "collectionAddress",
          "type": "address"
        }
      ],
      "name": "LicensesDisabledForCollection",
      "type": "event"
    },
    {
      "anonymous": false,
      "inputs": [
        {
          "indexed": false,
          "internalType": "address",
          "name": "collectionAddress",
          "type": "address"
        },
        {
          "indexed": false,
          "internalType": "uint256",
          "name": "artistRoyalty",
          "type": "uint256"
        },
        {
          "indexed": false,
          "internalType": "uint256",
          "name": "ownerRoyalty",
          "type": "uint256"
        },
        {
          "indexed": false,
          "internalType": "uint256",
          "name": "promoterCommission",
          "type": "uint256"
        }
      ],
      "name": "LicensesEnabledForCollection",
      "type": "event"
    },
    {
      "anonymous": false,
      "inputs": [
        {
          "indexed": true,
          "internalType": "address",
          "name": "previousOwner",
          "type": "address"
        },
        {
          "indexed": true,
          "internalType": "address",
          "name": "newOwner",
          "type": "address"
        }
      ],
      "name": "OwnershipTransferred",
      "type": "event"
    },
    {
      "anonymous": false,
      "inputs": [
        {
          "indexed": false,
          "internalType": "address",
          "name": "collectionAddress",
          "type": "address"
        },
        {
          "indexed": false,
          "internalType": "uint256",
          "name": "tokenId",
          "type": "uint256"
        },
        {
          "indexed": false,
          "internalType": "address",
          "name": "promoter",
          "type": "address"
        },
        {
          "indexed": false,
          "internalType": "uint256",
          "name": "artistShare",
          "type": "uint256"
        },
        {
          "indexed": false,
          "internalType": "uint256",
          "name": "ownerShare",
          "type": "uint256"
        },
        {
          "indexed": false,
          "internalType": "uint256",
          "name": "promoterShare",
          "type": "uint256"
        },
        {
          "indexed": false,
          "internalType": "address",
          "name": "licensee",
          "type": "address"
        }
      ],
      "name": "PrintLicensed",
      "type": "event"
    },
    {
      "anonymous": false,
      "inputs": [
        {
          "indexed": true,
          "internalType": "address",
          "name": "payee",
          "type": "address"
        },
        {
          "indexed": false,
          "internalType": "uint256",
          "name": "weiAmount",
          "type": "uint256"
        }
      ],
      "name": "Withdrawn",
      "type": "event"
    },
    {
      "inputs": [
        {
          "internalType": "address",
          "name": "",
          "type": "address"
        }
      ],
      "name": "collectionLicenses",
      "outputs": [
        {
          "internalType": "uint256",
          "name": "artistRoyalty",
          "type": "uint256"
        },
        {
          "internalType": "uint256",
          "name": "ownerRoyalty",
          "type": "uint256"
        },
        {
          "internalType": "uint256",
          "name": "promoterCommission",
          "type": "uint256"
        },
        {
          "internalType": "bool",
          "name": "exists",
          "type": "bool"
        }
      ],
      "stateMutability": "view",
      "type": "function"
    },
    {
      "inputs": [
        {
          "internalType": "address",
          "name": "",
          "type": "address"
        },
        {
          "internalType": "uint256",
          "name": "",
          "type": "uint256"
        },
        {
          "internalType": "address",
          "name": "",
          "type": "address"
        }
      ],
      "name": "licenseBuyers",
      "outputs": [
        {
          "internalType": "bool",
          "name": "",
          "type": "bool"
        }
      ],
      "stateMutability": "view",
      "type": "function"
    },
    {
      "inputs": [],
      "name": "owner",
      "outputs": [
        {
          "internalType": "address",
          "name": "",
          "type": "address"
        }
      ],
      "stateMutability": "view",
      "type": "function"
    },
    {
      "inputs": [],
      "name": "renounceOwnership",
      "outputs": [],
      "stateMutability": "nonpayable",
      "type": "function"
    },
    {
      "inputs": [
        {
          "internalType": "address",
          "name": "newOwner",
          "type": "address"
        }
      ],
      "name": "transferOwnership",
      "outputs": [],
      "stateMutability": "nonpayable",
      "type": "function"
    },
    {
      "inputs": [
        {
          "internalType": "address",
          "name": "collectionAddress",
          "type": "address"
        },
        {
          "internalType": "uint256",
          "name": "artistRoyalty",
          "type": "uint256"
        },
        {
          "internalType": "uint256",
          "name": "ownerRoyalty",
          "type": "uint256"
        },
        {
          "internalType": "uint256",
          "name": "promoterCommission",
          "type": "uint256"
        }
      ],
      "name": "enableLicensesForCollection",
      "outputs": [],
      "stateMutability": "nonpayable",
      "type": "function"
    },
    {
      "inputs": [
        {
          "internalType": "address",
          "name": "collectionAddress",
          "type": "address"
        }
      ],
      "name": "disableLicensesForCollection",
      "outputs": [],
      "stateMutability": "nonpayable",
      "type": "function"
    },
    {
      "inputs": [
        {
          "internalType": "address",
          "name": "collectionAddress",
          "type": "address"
        },
        {
          "internalType": "uint256",
          "name": "tokenId",
          "type": "uint256"
        },
        {
          "internalType": "address",
          "name": "promoter",
          "type": "address"
        }
      ],
      "name": "getLicenseToPrint",
      "outputs": [],
      "stateMutability": "payable",
      "type": "function"
    },
    {
      "inputs": [
        {
          "internalType": "address",
          "name": "collectionAddress",
          "type": "address"
        }
      ],
      "name": "getCollectionOwner",
      "outputs": [
        {
          "internalType": "address",
          "name": "",
          "type": "address"
        }
      ],
      "stateMutability": "view",
      "type": "function"
    },
    {
      "inputs": [],
      "name": "getBalance",
      "outputs": [
        {
          "internalType": "uint256",
          "name": "",
          "type": "uint256"
        }
      ],
      "stateMutability": "view",
      "type": "function"
    },
    {
      "inputs": [],
      "name": "withdraw",
      "outputs": [],
      "stateMutability": "nonpayable",
      "type": "function"
    },
    {
      "inputs": [
        {
          "internalType": "address",
          "name": "collectionAddress",
          "type": "address"
        }
      ],
      "name": "getRequiredPayment",
      "outputs": [
        {
          "internalType": "uint256",
          "name": "",
          "type": "uint256"
        }
      ],
      "stateMutability": "view",
      "type": "function"
    }
  ],
  "bytecode": "0x608060405234801561001057600080fd5b5061001a3361001f565b61006f565b600080546001600160a01b038381166001600160a01b0319831681178455604051919092169283917f8be0079c531659141344cd1fd0a4f28419497f9722a3daafe3b4186f6b6457e09190a35050565b610dac8061007e6000396000f3fe6080604052600436106100a75760003560e01c80639e033ab8116100645780639e033ab8146101725780639f240e8c146101c3578063a7f12367146101e3578063ac01082c14610203578063df07368014610223578063f2fde38b1461028b57600080fd5b806312065fe0146100ac5780633ccfd60b146100dd57806340e7bcb8146100f4578063715018a614610107578063745b69ca1461011c5780638da5cb5b14610154575b600080fd5b3480156100b857600080fd5b50336000908152600360205260409020545b6040519081526020015b60405180910390f35b3480156100e957600080fd5b506100f26102ab565b005b6100f2610102366004610c39565b610325565b34801561011357600080fd5b506100f2610709565b34801561012857600080fd5b5061013c610137366004610c7b565b61076f565b6040516001600160a01b0390911681526020016100d4565b34801561016057600080fd5b506000546001600160a01b031661013c565b34801561017e57600080fd5b506101b361018d366004610c39565b600260209081526000938452604080852082529284528284209052825290205460ff1681565b60405190151581526020016100d4565b3480156101cf57600080fd5b506100f26101de366004610c7b565b6107e8565b3480156101ef57600080fd5b506100f26101fe366004610c98565b61090e565b34801561020f57600080fd5b506100ca61021e366004610c7b565b610a81565b34801561022f57600080fd5b5061026961023e366004610c7b565b6001602081905260009182526040909120805491810154600282015460039092015490919060ff1684565b60408051948552602085019390935291830152151560608201526080016100d4565b34801561029757600080fd5b506100f26102a6366004610c7b565b610b09565b33600081815260036020526040808220805490839055905190929183156108fc02918491818181858888f193505050501580156102ec573d6000803e3d6000fd5b5060405181815233907f7084f5476618d8e60b11ef0d7d3f06914655adb8793e28ff7f018d4c76d505d59060200160405180910390a250565b6001600160a01b0383166000908152600160205260409020600381015460ff1661038b5760405162461bcd60e51b81526020600482015260126024820152711b9bc81b1a58d95b9cd9481919599a5b995960721b60448201526064015b60405180910390fd5b600061039685610a81565b9050803410156103da5760405162461bcd60e51b815260206004820152600f60248201526e7061796d656e7420746f6f206c6f7760881b6044820152606401610382565b815460018301546001600160a01b0380881660009081526002602090815260408083208a8452825280832093891683529290529081205460ff161561042f5760028501546104289082610ce9565b905061048b565b6001850154855460009161044291610ce9565b8654909150610452908290610d01565b86600201546104619190610d23565b61046b9085610ce9565b935083866002015461047d9190610d42565b6104879084610ce9565b9250505b60006104968961076f565b6040516331a9108f60e11b8152600481018a90529091506000906001600160a01b038b1690636352211e9060240160206040518083038186803b1580156104dc57600080fd5b505afa1580156104f0573d6000803e3d6000fd5b505050506040513d601f19601f820116820180604052508101906105149190610d59565b6001600160a01b038316600090815260036020526040812080549293508792909190610541908490610ce9565b90915550506001600160a01b0381166000908152600360205260408120805486929061056e908490610ce9565b90915550506001600160a01b0388166000908152600360205260408120805485929061059b908490610ce9565b90915550839050846105ad8734610d42565b6105b79190610d42565b6105c19190610d42565b60036000306001600160a01b0316638da5cb5b6040518163ffffffff1660e01b815260040160206040518083038186803b1580156105fe57600080fd5b505afa158015610612573d6000803e3d6000fd5b505050506040513d601f19601f820116820180604052508101906106369190610d59565b6001600160a01b03166001600160a01b0316815260200190815260200160002060008282546106659190610ce9565b90915550506001600160a01b038a811660008181526002602090815260408083208e845282528083203380855290835292819020805460ff1916600117905580519384529083018d9052928b1682840152606082018890526080820187905260a0820186905260c082015290517f392825701cbb0a7346d46a2e6b195c21f972083f7e348431a93917a3f2f297f89160e0908290030190a150505050505050505050565b6000546001600160a01b031633146107635760405162461bcd60e51b815260206004820181905260248201527f4f776e61626c653a2063616c6c6572206973206e6f7420746865206f776e65726044820152606401610382565b61076d6000610bd4565b565b6000816001600160a01b0316638da5cb5b6040518163ffffffff1660e01b815260040160206040518083038186803b1580156107aa57600080fd5b505afa1580156107be573d6000803e3d6000fd5b505050506040513d601f19601f820116820180604052508101906107e29190610d59565b92915050565b60006107f38261076f565b90506001600160a01b038116331461083e5760405162461bcd60e51b815260206004820152600e60248201526d1b9bdd08185d5d1a1bdc9a5e995960921b6044820152606401610382565b6001600160a01b03821660009081526001602052604090206003015460ff166108a15760405162461bcd60e51b81526020600482015260156024820152741b1a58d95b9cda5b99c81b9bdd08195b98589b1959605a1b6044820152606401610382565b6001600160a01b038216600081815260016020818152604080842084815592830184905560028301939093556003909101805460ff1916905590519182527f9a3925378b5396636ce4cabee76c42b3ce070e76c17ae0028fd5812843cce835910160405180910390a15050565b60006109198561076f565b90506001600160a01b03811633146109645760405162461bcd60e51b815260206004820152600e60248201526d1b9bdd08185d5d1a1bdc9a5e995960921b6044820152606401610382565b6001600160a01b03851660009081526001602052604090206003015460ff16156109d05760405162461bcd60e51b815260206004820152601760248201527f4c6963656e736520616c726561647920656e61626c65640000000000000000006044820152606401610382565b60408051608080820183528682526020808301878152838501878152600160608087018281526001600160a01b038e1660008181528488528a9020895181559551938601939093559251600285015591516003909301805460ff1916931515939093179092558551918252918101899052938401879052830185905290917fe626cb95d0699923cb573a228f65fbd7cb517bfcdb9d65fcabc2d6452fb35cbb910160405180910390a1505050505050565b6001600160a01b0381166000908152600160205260408120600381015460ff16610ae25760405162461bcd60e51b81526020600482015260126024820152711b9bc81b1a58d95b9cd9481919599a5b995960721b6044820152606401610382565b600281015460018201548254610af89190610ce9565b610b029190610ce9565b9392505050565b6000546001600160a01b03163314610b635760405162461bcd60e51b815260206004820181905260248201527f4f776e61626c653a2063616c6c6572206973206e6f7420746865206f776e65726044820152606401610382565b6001600160a01b038116610bc85760405162461bcd60e51b815260206004820152602660248201527f4f776e61626c653a206e6577206f776e657220697320746865207a65726f206160448201526564647265737360d01b6064820152608401610382565b610bd181610bd4565b50565b600080546001600160a01b038381166001600160a01b0319831681178455604051919092169283917f8be0079c531659141344cd1fd0a4f28419497f9722a3daafe3b4186f6b6457e09190a35050565b6001600160a01b0381168114610bd157600080fd5b600080600060608486031215610c4e57600080fd5b8335610c5981610c24565b9250602084013591506040840135610c7081610c24565b809150509250925092565b600060208284031215610c8d57600080fd5b8135610b0281610c24565b60008060008060808587031215610cae57600080fd5b8435610cb981610c24565b966020860135965060408601359560600135945092505050565b634e487b7160e01b600052601160045260246000fd5b60008219821115610cfc57610cfc610cd3565b500190565b600082610d1e57634e487b7160e01b600052601260045260246000fd5b500490565b6000816000190483118215151615610d3d57610d3d610cd3565b500290565b600082821015610d5457610d54610cd3565b500390565b600060208284031215610d6b57600080fd5b8151610b0281610c2456fea26469706673582212204cb376d0d1cc424ad65d8100a4544a0fdcb75243eee3d29d0c0733c0d2a47c2964736f6c63430008090033",
  "immutableReferences": {},
  "source": "// SPDX-License-Identifier: MIT\npragma solidity ^0.8.0;\nimport \"@openzeppelin/contracts/access/Ownable.sol\";\nimport \"@openzeppelin/contracts/interfaces/IERC721.sol\";\n\n\nstruct License {\n  uint256 artistRoyalty;\n  uint256 ownerRoyalty;\n  uint256 promoterCommission;\n  bool exists;\n}\n\n\ncontract NftPrintLicense is Ownable {\n  event LicensesEnabledForCollection(address collectionAddress, uint256 artistRoyalty, uint256 ownerRoyalty,\n    uint256 promoterCommission);\n  event LicensesDisabledForCollection(address collectionAddress);\n  event PrintLicensed(address collectionAddress, uint256 tokenId, address promoter,\n    uint256 artistShare, uint256 ownerShare, uint256 promoterShare, address licensee);\n  event Withdrawn(address indexed payee, uint256 weiAmount);\n\n  mapping(address => License) public collectionLicenses;\n  mapping(address => mapping(uint256 => mapping(address => bool))) public licenseBuyers;\n  mapping(address => uint256) private pendingWithdrawal;\n\n  function enableLicensesForCollection(\n    address collectionAddress,\n    uint256 artistRoyalty, uint256 ownerRoyalty, uint256 promoterCommission\n  ) public {\n    // Only the owner of a collection is allowed to enable license for a collection\n    address owner = getCollectionOwner(collectionAddress);\n    require(owner == msg.sender, \"not authorized\");\n\n    // Fail when a license already exists\n    require(!collectionLicenses[collectionAddress].exists, \"License already enabled\");\n\n    // Created the license object and save it\n    License memory license = License(artistRoyalty, ownerRoyalty, promoterCommission, true);\n    collectionLicenses[collectionAddress] = license;\n    emit LicensesEnabledForCollection(collectionAddress, artistRoyalty, ownerRoyalty, promoterCommission);\n  }\n\n  function disableLicensesForCollection(address collectionAddress) public {\n    // only the collection owner can disable licensing\n    address owner = getCollectionOwner(collectionAddress);\n    require(owner == msg.sender, \"not authorized\");\n\n    // fail when license isn't enabled\n    require(collectionLicenses[collectionAddress].exists, \"licensing not enabled\");\n\n    delete collectionLicenses[collectionAddress];\n\n    emit LicensesDisabledForCollection(collectionAddress);\n  }\n\n  function getLicenseToPrint(address collectionAddress, uint256 tokenId, address promoter) public payable {\n    License storage license = collectionLicenses[collectionAddress];\n\n    // Fail when a license hasn't been defined for the collection\n    require(license.exists, \"no license defined\");\n\n    // Fail when the payment is too small\n    uint256 requiredPayment = getRequiredPayment(collectionAddress);\n    require(msg.value >= requiredPayment, \"payment too low\");\n\n    // calculate royalty and commission shares\n    uint256 artistShare = license.artistRoyalty;\n    uint256 ownerShare = license.ownerRoyalty;\n    uint256 promoterShare = 0;\n    if (licenseBuyers[collectionAddress][tokenId][promoter]) {\n      // When the promoter previously bought a license, give them the commission\n      promoterShare += license.promoterCommission;\n    } else {\n      // Otherwise, split it proportioanlly between the tokenOwner and the artist\n      uint256 totalRoyalty = license.artistRoyalty + license.ownerRoyalty;\n      artistShare += license.promoterCommission * (license.artistRoyalty / totalRoyalty);\n      ownerShare += license.promoterCommission - artistShare;\n    }\n\n    address artist = getCollectionOwner(collectionAddress);\n    address tokenOwner =  IERC721(collectionAddress).ownerOf(tokenId);\n\n    pendingWithdrawal[artist] += artistShare;\n    pendingWithdrawal[tokenOwner] += ownerShare;\n    pendingWithdrawal[promoter] += promoterShare;\n\n    // allocate the rest to the contract to cover production costs\n    pendingWithdrawal[this.owner()] += msg.value - artistShare - ownerShare - promoterShare;\n\n    // Record the purchase\n    licenseBuyers[collectionAddress][tokenId][msg.sender] = true;\n\n    emit PrintLicensed(collectionAddress, tokenId, promoter, artistShare, ownerShare, promoterShare, msg.sender);\n  }\n  \n  function getCollectionOwner(address collectionAddress) public view returns(address){\n    return Ownable(collectionAddress).owner();\n  }\n\n  function getBalance() public view returns(uint256) {\n    return pendingWithdrawal[msg.sender];\n  }\n\n  function withdraw() public {\n    uint256 amount = pendingWithdrawal[msg.sender];\n    pendingWithdrawal[msg.sender] = 0;\n    payable(msg.sender).transfer(amount);\n\n    emit Withdrawn(msg.sender, amount);\n  }\n\n  function getRequiredPayment(address collectionAddress) public view returns(uint256){\n    License storage license = collectionLicenses[collectionAddress];\n    require(license.exists, \"no license defined\");\n    return license.artistRoyalty + license.ownerRoyalty + license.promoterCommission; // TODO Add the cost\n  }\n}\n",
  "sourcePath": "/Users/ken/Projects/tokenflex/contracts/NftPrintLicense.sol",
  "compiler": {
    "name": "solc",
    "version": "0.8.9+commit.e5eed63a.Emscripten.clang"
  },
  "schemaVersion": "3.4.1",
  "updatedAt": "2021-10-03T07:21:01.271Z",
  "devdoc": {
    "kind": "dev",
    "methods": {
      "owner()": {
        "details": "Returns the address of the current owner."
      },
      "renounceOwnership()": {
        "details": "Leaves the contract without owner. It will not be possible to call `onlyOwner` functions anymore. Can only be called by the current owner. NOTE: Renouncing ownership will leave the contract without an owner, thereby removing any functionality that is only available to the owner."
      },
      "transferOwnership(address)": {
        "details": "Transfers ownership of the contract to a new account (`newOwner`). Can only be called by the current owner."
      }
    },
    "version": 1
  },
  "userdoc": {
    "kind": "user",
    "methods": {},
    "version": 1
  }
}